S01400004156525F53656374696F6E732E7372656380
S11300000C942A000C9434000C9434000C943400A6
S11300100C9434000C9434000C9434000C9434008C
S11300200C9434000C9434000C9434000C9434007C
S11300300C9434000C9434000C9434000C9434006C
S11300400C9434000C9434000C9434000C9434005C
S11300500C94340011241FBECFE5D8E0DEBFCDBF21
S11300600E9436000C9409010C94000067E081E0C2
S11300700E94F90040E062E081E00E94830041E0D8
S113008060E081E00E9483002FE784E89EE1215034
S113009080409040E1F700C0000040E060E081E073
S11300A00E94830041E061E081E00E9483002FEB25
S11300B087E299E0215080409040E1F700C00000C1
S11300C040E061E081E00E94830041E062E081E081
S11300D00E9483002FE784E89EE1215080409040F5
S11300E0E1F700C0000040E060E081E00E9483008E
S11300F040E061E081E00E94830040E062E081E052
S11301000E948300B7CF843008F072C0683008F0D2
S11301106FC04130A1F5813089F028F08230C9F0F8
S1130120833011F108952BB381E090E002C0880F71
S1130130991F6A95E2F7822B8BBB089528B381E05F
S113014090E002C0880F991F6A95E2F7822B88BB62
S1130150089525B381E090E002C0880F991F6A9545
S1130160E2F7822B85BB089522B381E090E002C0C0
S1130170880F991F6A95E2F7822B82BB089541117B
S113018037C0813091F028F08230D9F0833029F1E2
S113019008952BB381E090E002C0880F991F6A95FF
S11301A0E2F7809582238BBB089528B381E090E029
S11301B002C0880F991F6A95E2F78095822388BB55
S11301C0089525B381E090E002C0880F991F6A95D5
S11301D0E2F78095822385BB089522B381E090E005
S11301E002C0880F991F6A95E2F78095822382BB2B
S11301F00895813041F028F0823039F0833039F0AD
S113020008956ABB089567BB089564BB089561BBF4
S10902100895F894FFCFED
S9030000FC
