:100000000C942A000C948E010C9447000C94470029
:100010000C9447000C9447000C9447000C94470044
:100020000C9447000C9447000C9447000C94470034
:100030000C9447000C9447000C9447000C94470024
:100040000C9447000C9447000C9447000C94470014
:100050000C94470011241FBECFE5D8E0DEBFCDBF12
:1000600010E0A0E6B0E0E4E0F6E002C005900D92FA
:10007000AC3BB107D9F720E0ACEBB0E001C01D927A
:10008000AE3BB207E1F70E94DF010C9400030C9431
:100090000000CF93C82F40E067E081E00E94420259
:1000A00040E066E081E00E94420241E065E081E0DC
:1000B0000E9442026C2F80E00E94C80283EC99E00B
:1000C0000197F1F700C0000040E065E081E00E9488
:1000D000420281EE94E00197F1F700C00000CF9159
:1000E00008958BE49DE10197F1F700C0000082E0E4
:1000F0000E94490085EA9EE00197F1F700C00000E8
:1001000088E30E94490089EF90E00197F1F700C071
:1001100000008CE00E94490089EF90E00197F1F720
:1001200000C0000081E00E94490089EF90E0019743
:10013000F1F700C0000086E00E94490083EF91E0E3
:100140000197F1F700C000000895CF93C82F41E058
:1001500067E081E00E94420240E066E081E00E94A8
:10016000420241E065E081E00E9442026C2F80E0A3
:100170000E94C80283EC99E00197F1F700C00000EB
:1001800040E065E081E00E944202CF9108950F9324
:100190001F93CF93FC018081882389F08F01C0E0F9
:1001A000CF5F0E94A50083EF91E00197F1F700C0B7
:1001B0000000F801EC0FF11D80818111F1CFCF918A
:1001C0001F910F910895603170F4882319F08130E8
:1001D00031F0089580E8860F0E944900089580EC70
:1001E000860F0E944900089581E00E944900089509
:1001F000EF92FF920F931F93CF93DF93F82EE62E8B
:1002000080E40E944900CCE7D0E00CEB10E089913B
:100210000E94A500C017D107D1F780E80E944900CD
:100220006E2D8F2D0E94E30080E00E94A50081EEDC
:1002300094E00197F1F700C0000081E00E94A50062
:1002400081EE94E00197F1F700C0000082E00E9487
:10025000A50081EE94E00197F1F700C00000DF9166
:10026000CF911F910F91FF90EF900895EF92FF9221
:100270000F931F93CF93DF93F82EE62E80E40E9416
:100280004900CCE7D0E00CEB10E089910E94A5007A
:100290000C171D07D1F780E80E9449006E2D8F2DA5
:1002A0000E94E300C3E08C2F0E94A50081EE94E041
:1002B0000197F1F700C00000CF5FC830A1F7DF91D0
:1002C000CF911F910F91FF90EF9008950E94F4003D
:1002D0008091BD0090E09C01220F331F220F331F3D
:1002E000820F931F805A9F4F0E94C7008091BD00CC
:1002F000811105C061E081E00E94F80008C08230F1
:1003000031F460E070E081E090E00E94360183EC1F
:1003100099E00197F1F700C0000008951F920F9235
:100320000FB60F9211242F933F934F935F936F93C8
:100330007F938F939F93AF93BF93EF93FF9380919E
:10034000BD0090E0019663E070E00E94D8028093C7
:10035000BD00813021F486E08093BC0002C0109281
:10036000BC00E091BC00F0E0EE58FF4F608182E0FD
:100370000E94C802E091BD00F0E0E159FF4F6081AA
:1003800081E00E94C8020E9466012FE38DE093E0A5
:10039000215080409040E1F700C00000FF91EF91B4
:1003A000BF91AF919F918F917F916F915F914F918D
:1003B0003F912F910F900FBE0F901F90189560EEF8
:1003C00081E00E94B8026FEF80E00E94B8020E94B4
:1003D00071000E94F40060E080E00E94E3008BB7AF
:1003E00080648BBF85B7826085BF789467EE81E0BB
:1003F0000E94B8026FEF82E00E94B802C3E0D0E032
:1004000016E00E946601E091BC00EB3040F5F0E0A0
:10041000EE58FF4F608182E00E94C8028091BC00CC
:1004200081110DC0E091BD00F0E0E159FF4F608106
:1004300081E00E94C8026FE382E00E94C8022FE3BD
:100440008DE093E0215080409040E1F700C0000033
:10045000E091BC00EF5FE093BC00EB30C0F2809114
:10046000BD0090E00196BE010E94D8028093BD00BD
:10047000813019F41093BC0002C01092BC000E949D
:10048000F400BFCF843008F072C0683008F06FC04D
:100490004130A1F5813089F028F08230C9F08330F5
:1004A00011F108952BB381E090E002C0880F991FED
:1004B0006A95E2F7822B8BBB089528B381E090E028
:1004C00002C0880F991F6A95E2F7822B88BB0895B6
:1004D00025B381E090E002C0880F991F6A95E2F78A
:1004E000822B85BB089522B381E090E002C0880F83
:1004F000991F6A95E2F7822B82BB0895411137C09C
:10050000813091F028F08230D9F0833029F10895BC
:100510002BB381E090E002C0880F991F6A95E2F743
:10052000809582238BBB089528B381E090E002C0C0
:10053000880F991F6A95E2F78095822388BB0895FA
:1005400025B381E090E002C0880F991F6A95E2F719
:100550008095822385BB089522B381E090E002C09C
:10056000880F991F6A95E2F78095822382BB0895D0
:10057000813041F028F0823039F0833039F008952D
:100580006ABB089567BB089564BB089561BB089575
:10059000813041F028F0823039F0833039F008950D
:1005A0006BBB089568BB089565BB089562BB089551
:1005B00097FB072E16F4009407D077FD09D00E9410
:1005C000EC0207FC05D03EF4909581959F4F08956D
:1005D000709561957F4F0895AA1BBB1B51E107C021
:1005E000AA1FBB1FA617B70710F0A61BB70B881FC3
:1005F000991F5A95A9F780959095BC01CD01089552
:04060000F894FFCF9C
:1006040073746F700077616974006D6F766500E1D3
:10061400E2E43F6F7F077D6D664F5B0600000000DC
:100624000000FF000E041F11150A11110000000044
:100634000000FF000E041F11150A11110000000034
:10064400FFFFFFFF0000000000FFFFFF00000000AD
:0C0654000000FFFF00000000000000FF9D
:00000001FF
